:100000000C94B5000C94D2000C94D2000C94D20045
:100010000C94D2000C94D2000C94D2000C94D20018
:100020000C94D2000C94B6010C94D2000C94D20023
:100030000C94D2000C94D2000C94D2000C94D200F8
:100040000C949F010C94D2000C94D2000C94D2001A
:100050000C94D2000C94D2000C94D2000C94D200D8
:100060000C94D2000C94D2006E616E00696E660032
:1000700000407A10F35A00A0724E18090010A5D45F
:10008000E80000E87648170000E40B54020000CABC
:100090009A3B000000E1F505000080969800000002
:1000A00040420F000000A086010000001027000061
:1000B0000000E803000000006400000000000A00E7
:1000C000000000000100000000002C76D888DC67EA
:1000D0004F0823DFC1DFAE59E1B1B796E5E3E45342
:1000E000C63AE651997696E8E6C28426EB898C9B5F
:1000F00062ED407C6FFCEFBC9C9F40F2BAA56FA5FF
:10010000F490055A2AF75C936B6CF9676DC11BFC80
:10011000E0E40D47FEF520E6B500D0ED902E03009B
:10012000943577050080841E080000204E0A0000E8
:1001300000C80C333333330F986E12831141EF8DA7
:100140002114893BE65516CFFEE6DB18D1844B38E7
:100150001BF77C1D901DA4BBE424203284725E2218
:100160008100C9F124ECA1E53D2711241FBECFEF8A
:10017000D4E0DEBFCDBF11E0A0E0B1E0E2E7F1E105
:1001800002C005900D92A834B107D9F721E0A8E488
:10019000B1E001C01D92A235B207E1F70E94F00163
:1001A0000C94B7080C9400008EE291E09F938F931B
:1001B0000E9413080F900F9080E090E0089581E373
:1001C00091E00E94290880E090E0089580E090E0AE
:1001D000089585B5836085BD16BCEEE6F0E08081AC
:1001E00081608083789410924901109248010895AB
:1001F000E1EBF0E08081836080831092B200E0E761
:10020000F0E080818160808310924B0110924A015E
:10021000089516BC10924901109248010895109259
:10022000B20010924B0110924A0108950F931F9350
:10023000CF93DF93569A579A5E985F984AE04A9513
:10024000F1F700C05E9A5F9A5AE15A95F1F700C043
:100250005E985F989AB180E489278AB98AB18058FC
:100260008AB94E9BFECF4F9BFECF0E9409010E9490
:100270000F014E99FECF4F99FECF2091480130914A
:10028000490186B51092490110924801C0914A0176
:10029000D0914B010091B20010924B0110924A0193
:1002A0009FEF40E752E0915040405040E1F700C0DE
:1002B00000001FEF129FB001139F700D1124680FF3
:1002C000711D072E000C880B990B0E949C052AEDCE
:1002D0003CEA4AE25FE30E94DC0520E030E041E6D0
:1002E00054E40E94D70587FD20C01C9FB0011D9FCC
:1002F000700D1124600F711D072E000C880B990BD7
:100300000E949C052AED3CEA4AE25FE30E94DC057C
:10031000D1E0C0E020E030E041E654E40E94D7059F
:1003200087FDD0E08D2F9C2F02C080E090E0DF9110
:10033000CF911F910F91089580E090E008951F9252
:100340000F920FB60F9211248F939F9380914801C3
:1003500090914901019690934901809348019F91A2
:100360008F910F900FBE0F901F9018951F920F92B4
:100370000FB60F9211248F939F9380914A01909111
:100380004B01019690934B0180934A019F918F916D
:100390000F900FBE0F901F9018951092C50087E622
:1003A0008093C400E2ECF0E0808186608083E1EC21
:1003B000F0E08081886180830895CF93C82F8A30D0
:1003C00029F460E070E08DE00E94DD018091C000C2
:1003D00085FFFCCFC093C60080E090E0CF910895E8
:1003E000CF930E94CD010E94E9000E94F80080E0B6
:1003F00091E090934F0180934E0190934D01809333
:100400004C01C0E0EC2FF0E0EE0FFF1FEA5DFE4F65
:100410000190F081E02D0995C330C1F0EEE0F1E0EC
:1004200020E030E09081C9130DC0918189130AC08A
:10043000F901EE0FFF1F2E0F3F1FF901E25FFE4F84
:10044000C281E0CF2F5F3F4F3396ECCF80E090E04A
:10045000CF910895A1E1B0E0E0E3F2E00C94BE0694
:100460007C013B016A01FC0117821682838181FFB6
:1004700037C39E012F5F3F4F4901F7019381F3017D
:1004800093FD859193FF81913F01882309F424C353
:10049000853239F493FD859193FF81913F01853237
:1004A00039F4B70190E00E94E30756016501E5CFFA
:1004B00010E0312C20E02032A0F48B3269F030F4CF
:1004C000803259F0833269F420612CC08D3239F0CA
:1004D000803339F4216026C02260246023C0286064
:1004E00021C027FD27C030ED380F3A3078F426FFC1
:1004F00006C0FAE01F9F300D1124132F13C08AE0AD
:10050000389E300D1124332E20620CC08E3221F41F
:1005100026FDE2C2206406C08C3611F4206802C0B9
:10052000883641F4F30193FD859193FF81913F015A
:100530008111C1CF9BEB980F933018F42061805E3E
:1005400006C09BE9980F933008F066C12F7E26FF06
:1005500016E02F73522E853619F42064522E08C0EF
:10056000863621F4922F9068592E02C01111115035
:1005700057FE07C01C3350F422242394210E27E099
:100580000BC0183038F027E017E005C027E09CE3E7
:10059000292E02C0212F212C5601E4E0AE0EB11C01
:1005A000F6016081718182819381022DA4010E94F4
:1005B000F5066C0129812C8720FF02C023FF06C0AD
:1005C00051FC06C052FE06C000E205C00DE203C0A9
:1005D0000BE201C000E08C858C7019F001115DC246
:1005E0009EC257FE10C02C0C2C8524FF04C08A81AB
:1005F000813309F42A94121474F538E0321578F531
:1006000088E0282E2CC056FC2AC0812F90E08C1543
:100610009D059CF08CEFC8168FEFD80674F0952DD1
:100620009068592E0AC0E2E0F0E0EC0FFD1FE10FE8
:10063000F11D8081803319F411501111F4CF57FE50
:100640000EC022242394210E812F90E0C816D906D3
:100650002CF41C1904C02224239401C010E057FE7E
:1006600006C01C141D0434F4C601019605C085E0C3
:1006700090E002C081E090E001110196112331F079
:10068000212F30E02F5F3F4F820F931F232D30E04B
:100690008217930714F4381A01C0312C852D897004
:1006A00049F4332039F0B70180E290E00E94E3077B
:1006B0003A94F7CF002329F0B701802F90E00E94F1
:1006C000E30753FC09C0332039F0B70180E390E021
:1006D0000E94E3073A94F7CF57FE4DC02601D7FE9C
:1006E00002C0412C512CC601019684199509940130
:1006F000280F391F3E872D87960122193109388B23
:100700002F87012F10E01195019511093FEF431636
:10071000530629F4B7018EE290E00E94E307C41467
:10072000D5044CF02F8538892415350524F4ED8542
:10073000FE85808101C080E3F1E04F1A51082D85CC
:100740003E852F5F3F4F3E872D87401651062CF088
:10075000B70190E00E94E307D9CFC414D50441F457
:100760009A81963320F4953319F43C8534FF81E364
:10077000B70190E04EC08A81813319F02C852F7E1D
:100780002C87B70190E00E94E307111105C054FCCB
:1007900018C085E690E017C0B7018EE290E00E9495
:1007A000E3071E5F82E001E0080FF401E80FF11D8E
:1007B0008081B70190E00E94E307802F0113F3CFFF
:1007C000E6CF85E490E0B7010E94E307D7FC06C0BE
:1007D000C114D10441F43C8534FF05C0D194C194C7
:1007E000D1088DE201C08BE2B70190E00E94E307DF
:1007F00080E3EAE0CE16D1042CF08F5F9AE0C91AAC
:10080000D108F7CFB70190E00E94E307B701C60116
:10081000C0960E94E30756C1833631F0833779F0E2
:10082000833509F058C021C05601F2E0AF0EB11C6B
:10083000F6018081898301E010E0640114C0560153
:10084000F2E0AF0EB11CF601C080D18026FF03C0DC
:10085000612F70E002C06FEF7FEFC601298B0E940D
:10086000D8078C0129892F7715C05601F2E0AF0E09
:10087000B11CF601C080D18026FF03C0612F70E05B
:1008800002C06FEF7FEFC601298B0E94CD078C015C
:1008900029892068522E23FD1AC0832D90E0081765
:1008A0001907A8F4B70180E290E00E94E3073A94A8
:1008B000F4CFF60157FC859157FE81916F01B70186
:1008C00090E00E94E30731103A940150110901159C
:1008D000110579F7F7C0843611F0893659F55601BC
:1008E00027FF09C0F4E0AF0EB11CF60160817181F1
:1008F000828193810AC0F2E0AF0EB11CF6016081E3
:100900007181072E000C880B990B2F76522E97FFC2
:1009100009C090958095709561957F4F8F4F9F4F3F
:100920002068522E2AE030E0A4010E945908C82E07
:10093000C8183FC0022F853721F40F7E2AE030E02F
:100940001DC0097F8F3691F018F4883559F0C4C066
:10095000803719F0883711F0BFC0006104FF09C06B
:10096000046007C024FF08C0066006C028E030E02D
:1009700005C020E130E002C020E132E0560107FF6F
:1009800009C0F4E0AF0EB11CF60160817181828173
:10099000938108C0F2E0AF0EB11CF6016081718155
:1009A00080E090E0A4010E945908C82EC8180F7773
:1009B000502E56FE0BC0052D0E7FC11650F454FE6E
:1009C0000AC052FC08C0052D0E7E05C0DC2C052D8A
:1009D00003C0DC2C01C0D12E04FF0DC0FE01EC0DC4
:1009E000F11D8081803311F4097E09C002FF06C029
:1009F000D394D39404C0802F867809F0D39403FD58
:100A000011C000FF06C0D31488F43C0C132D1D192F
:100A10000EC0D31460F4B70180E290E00E94E307B7
:100A2000D394F7CFD31418F43D1802C01C2D312CE9
:100A300004FF10C0B70180E390E00E94E30702FFCB
:100A400017C001FD03C088E790E002C088E590E090
:100A5000B7010CC0802F867859F001FF02C08BE2ED
:100A600001C080E207FD8DE2B70190E00E94E3073C
:100A7000C11638F4B70180E390E00E94E3071150FB
:100A8000F7CFCA94F401EC0DF11D8081B70190E01D
:100A90000E94E307C110F5CF15C0F4E0F31560F52F
:100AA00084E0381A53FE1FC0011127C03C8533FF74
:100AB0002AC008E610E0852D8071582EF801849137
:100AC000811124C0332009F4F1CCB70180E290E019
:100AD0000E94E3073A94F6CFF7018681978126C0FA
:100AE0008FEF9FEF23C0B70180E290E00E94E30701
:100AF0003A943110F8CFD8CF312CB701802F90E045
:100B00000E94E307D3CF0CE610E0D5CF51108052FE
:100B1000B70190E00E94E3070F5F1F4FCFCF23E0A4
:100B2000231510F483E0BDCF312CC0CF6196E2E1F4
:100B30000C94DA06E89409C097FB3EF490958095F2
:100B4000709561957F4F8F4F9F4F9923A9F0F92F93
:100B500096E9BB279395F695879577956795B79511
:100B6000F111F8CFFAF4BB0F11F460FF1BC06F5FF7
:100B70007F4F8F4F9F4F16C0882311F096E911C009
:100B8000772321F09EE8872F762F05C0662371F02A
:100B900096E8862F70E060E02AF09A95660F771F3E
:100BA000881FDAF7880F9695879597F908950E9420
:100BB000490608F48FEF08950E94EF050C9484060F
:100BC0000E94760638F00E947D0620F0952311F0F1
:100BD0000C946D060C94730611240C94B8060E94B4
:100BE000950670F3959FC1F3950F50E0551F629FD6
:100BF000F001729FBB27F00DB11D639FAA27F00D76
:100C0000B11DAA1F649F6627B00DA11D661F829F9C
:100C10002227B00DA11D621F739FB00DA11D621F81
:100C2000839FA00D611D221F749F3327A00D611D9E
:100C3000231F849F600D211D822F762F6A2F112480
:100C40009F5750409AF0F1F088234AF0EE0FFF1FB3
:100C5000BB1F661F771F881F91505040A9F79E3F0A
:100C6000510580F00C946D060C94B8065F3FE4F3D8
:100C7000983ED4F3869577956795B795F795E79560
:100C80009F5FC1F7FE2B880F911D9695879597F969
:100C90000895990F0008550FAA0BE0E8FEEF16160D
:100CA0001706E807F907C0F012161306E407F50760
:100CB00098F0621B730B840B950B39F40A2661F0D4
:100CC000232B242B252B21F408950A2609F4A14077
:100CD000A6958FEF811D811D089597F99F6780E884
:100CE00070E060E008959FEF80EC089500240A947E
:100CF0001616170618060906089500240A941216F7
:100D00001306140605060895092E0394000C11F429
:100D1000882352F0BB0F40F4BF2B11F460FF04C0D6
:100D20006F5F7F4F8F4F9F4F089557FD9058440F2F
:100D3000551F59F05F3F71F04795880F97FB991F3A
:100D400061F09F3F79F087950895121613061406F7
:100D5000551FF2CF4695F1DF08C016161706180684
:100D6000991FF1CF86957105610508940895E8945F
:100D7000BB2766277727CB0197F908952F923F92DB
:100D80004F925F926F927F928F929F92AF92BF929B
:100D9000CF92DF92EF92FF920F931F93CF93DF9347
:100DA000CDB7DEB7CA1BDB0B0FB6F894DEBF0FBEA4
:100DB000CDBF09942A88398848885F846E847D84F1
:100DC0008C849B84AA84B984C884DF80EE80FD80F3
:100DD0000C811B81AA81B981CE0FD11D0FB6F89469
:100DE000DEBF0FBECDBFED010895283008F027E02B
:100DF0003327DA01990F311D87FD91600096610557
:100E0000710539F432602E5F3D9330E32A95E1F7A6
:100E100008959F3F30F080387105610509F03C5F0F
:100E20003C5F3D93913008F08068911DDF93CF9334
:100E30001F930F93FF92EF92192F987F9695E92FAA
:100E400096959695E90FFF27E653FF4F992733278D
:100E5000EE24FF24A701E70105900894079428F4E5
:100E6000360FE71EF81E491F511D660F771F881F9A
:100E7000991F0694A1F70590079428F4E70EF81E31
:100E8000491F561FC11D770F881F991F661F0694A3
:100E9000A1F70590079428F4F80E491F561FC71FA5
:100EA000D11D880F991F661F771F0694A1F7059023
:100EB000079420F4490F561FC71FD81F990F661FAC
:100EC000771F881F0694A9F784911095177041F039
:100ED000D695C79557954795F794E7941A95C1F716
:100EE000E0E7F0E068941590159135916591959142
:100EF00005907FE27395E118F10A430B560BC90B7D
:100F0000D009C0F7E10CF11E431F561FC91FD01DA9
:100F10007EF4703311F48A95E6CFE894015030F0F6
:100F2000080F0AF40027021708F4202F2395022F38
:100F30007A3328F079E37D932A95E9F710C07D9301
:100F40002A9589F60694979567953795179517947E
:100F5000E118F10A430B560BC90BD00998F0239501
:100F60007E9173957A3308F070E37C932013B8F781
:100F70007E9170617D9330F0839571E37D9370E392
:100F80002A95E1F71124EF90FF900F911F91CF91D7
:100F9000DF91992787FD90950895FC010590615098
:100FA00070400110D8F7809590958E0F9F1F08957F
:100FB000FC016150704001900110D8F78095909528
:100FC0008E0F9F1F08950F931F93CF93DF93182FBA
:100FD000092FEB018B8181FD03C08FEF9FEF1EC0B6
:100FE00082FF0FC02E813F818C819D812817390798
:100FF00074F4E881F981CF01019699838883108385
:1010000006C0E885F985812F0995892B31F78E81F6
:101010009F8101969F838E83812F902FDF91CF91A7
:101020001F910F910895A0E0B0E0E9E1F8E00C9481
:10103000CE06AE014B5F5F4FFA0161917191AF0136
:1010400080914E0190914F010E942A02E2E00C949F
:10105000EA060F931F93CF93DF93E0914E01F09137
:101060004F01238121FF1BC08C01D0E0C0E0F801BB
:1010700081918F0160914E0170914F01DB011896B3
:10108000ED91FC911997882331F00995892B79F31B
:10109000DFEFCFEFECCF8AE00995892B19F08FEFC6
:1010A0009FEF02C08D2F9C2FDF91CF911F910F9149
:1010B0000895FA01AA27283051F1203181F1E894EE
:1010C0006F936E7F6E5F7F4F8F4F9F4FAF4FB1E03B
:1010D0003ED0B4E03CD0670F781F891F9A1FA11D36
:1010E000680F791F8A1F911DA11D6A0F711D811D37
:1010F000911DA11D20D009F468943F912AE0269FFC
:1011000011243019305D3193DEF6CF010895462F5A
:101110004770405D4193B3E00FD0C9F7F6CF462F3B
:101120004F70405D4A3318F0495D31FD40524193A4
:1011300002D0A9F7EACFB4E0A69597958795779561
:101140006795BA95C9F700976105710508959B01E8
:10115000AC010A2E06945795479537952795BA9571
:10116000C9F7620F731F841F951FA01D0895F8947F
:02117000FFCFAF
:101172000000000200000000DD010000000000008D
:10118200010001030100020101010102010200004C
:10119200020103020202E6001601D400DF00412030
:1011A200005765206861766520612070726F626CFD
:0811B200656D203A2D290000B3
:00000001FF
